:100000000A128A11ED2FFF0000308A007F08820754
:1000100008280A128A11E12A0A128A1199290A1259
:100020008A11A1290A128A11B9290A128A111D2CD2
:100030000A128A11F6290A128A11A9290A128A11AA
:10004000972A0A128A11DD290A128A11C52C0A126E
:100050008A11922D0A128A11192A00308A00040886
:10006000840A8207003400347034033402340134CB
:100070000034003401340034023424342834013490
:100080000134D0349034C03480348034C03480346F
:10009000003420342D342D342D342D342D3420349F
:1000A000463449344E3445342D342D342D342D34DA
:1000B0002034463449344E3445342E3420344134CF
:1000C0004E344434203459344F3455343F3448345A
:1000D00045344C344C344F3420344D34593420346E
:1000E00046345234493445344E3444342034483450
:1000F0004F34573420344134523445342034593449
:060100004F3455343F347A
:1003320083160313111511199F29A0299C2908005E
:100342008316031311141118A729A829A429080038
:10035200831203135C08D8005D08D900DA015E0835
:100362008038DB000A128A1140220A128A11080020
:1003720070088312031393008C118C1DC129C229AA
:10038200BE2983160313110EF100F10C710C013911
:1003920008007E088A007F0882000A128A11CA2198
:1003A2000A128A118000840A04087D0603190034A7
:1003B200FF0A0319FE0ACE29831203135C08D80030
:1003C2005D08D900DA01DB01DB0A0A128A11402238
:1003D2000A128A110D3083120313DF00FB30DE0094
:1003E200DE0BF129DF0BF1290800831203135F08EA
:1003F200031DFC29FD290B2A5C08D8005D08D900E1
:10040200DA015E088038DB000A128A1140220A12E1
:100412008A11182A5C08D8005D08D900DA015E0842
:10042200C038DB000A128A1140220A128A1108001F
:1004320083120313EF01392A5C08D8005D08D90042
:10044200DA01DA0A6F085E0784000A128A112D2087
:100452000A128A11DB000A128A1140220A128A1138
:100462005330FD00FD0B332A013083120313EF07D3
:100472005F086F02031C3E2A3F2A1D2A08008312CE
:1004820003135808CE005908CF005A08D0005B0861
:10049200FC0004300310FC0CFF3E031D4B2A7C08B9
:1004A200D1000A128A11A1230A128A11831203139C
:1004B2005B08D1000F30D1055808CE005908CF0093
:1004C2005A08D0000A128A11A1230A128A110800BE
:1004D2001F3419340034223416341F3419340034D2
:1004E200223410341F3419340034223413340134CA
:1004F200073400340A3400340434453400344134BF
:10050200003448340034413400344B340034413434
:1005120000340D341C34003400342F3400340334DE
:100522002F34003401342F34003400348312031387
:100532005F08031D9D2A9E2AAC2A5C08D8005D082C
:10054200D900DA015E088038DB000A128A114022E3
:100552000A128A11E02A5F03031DB02AB12ABF2AB8
:100562005C08D8005D08D900DA015E08C038DB00FB
:100572000A128A1140220A128A11E02A02305F0608
:10058200031DC42AC52AD32A5C08D8005D08D900F5
:10059200DA015E089038DB000A128A1140220A1240
:1005A2008A11E02A5C08D8005D08D900DA015E08E9
:1005B200D038DB000A128A1140220A128A1108007E
:1005C200831203139416941514119410141080308E
:1005D200831603139400FF3083120313D600FF30F7
:1005E200D700FF30D800FF30D9005208DA00530894
:1005F200DB005408DC005508DD0002300310DA0D80
:10060200DB0DDC0DDD0DFF3E031DFF2A5D08F3004F
:100612005C08F2005B08F1005A08F0005108F7008C
:100622005008F6004F08F5004E08F4000A128A112D
:100632003D230A128A11700883120313D607710828
:100642000318710F252B262BD70772080318720F78
:100652002B2B2C2BD80773080318730AD9075908B8
:10066200D1005808D0005708CF005608CE004E08D7
:1006720083160313930008000030FC000030FB00D7
:100682000030FA000030F90073087204710470043B
:1006920003194C2B4D2B982B0130FD005B2B0130A5
:1006A200F8000310F00DF10DF20DF30DF80B522BC3
:1006B2000130FD07F31F5E2B5F2B502B0130F8003A
:1006C2000310F90DFA0DFB0DFC0DF80B612B7308ED
:1006D2007702031D762B72087602031D762B7108B2
:1006E2007502031D762B70087402031C792B7A2B7A
:1006F200892B7008F4027108031C710FF50272084D
:10070200031C720FF6027308031C730FF7027914AD
:1007120001300310F30CF20CF10CF00CFF3E031D40
:100722008A2B0130FD02031D972B982B5F2B7C082F
:10073200F3007B08F2007A08F1007908F000080063
:10074200831203134E08840083174F1C831300087F
:10075200F200840A00088403F3005008D300043036
:100762000310D30DFF3E031DB12B0310530D510493
:10077200F4004E08023ED4004F080318013E003E2A
:10078200D500540884008317551C83130008D60033
:10079200840A0008D700560884008317571C831365
:1007A20000080A128A1103200A128A1102308312E7
:1007B2000313D200D20BDB2B0000831203134E086B
:1007C200840083174F1C83130008F200840A000878
:1007D2008403F3005008D30004300310D30DFF3E0E
:1007E200031DEE2B0310530D51041038F4004E0874
:1007F200023ED4004F080318013E003ED5005408C3
:1008020084008317551C83130008D600840A00084D
:10081200D700560884008317571C831300080A1256
:100822008A1103200A128A11023083120313D200A2
:10083200D20B192C00000800720884008317731C65
:1008420083130008F500840A0008F6007508013ECB
:10085200F70076080318013E003EF800770884008E
:100862008317781C831300080A128A1103200A12C4
:100872008A117208023EF50073080318013E003E19
:10088200F600750884008317761C83130008F700AE
:1008920077077038F000720884008317731C831383
:1008A2000008F800840A0008F9007808033EFA00FC
:1008B20079080318013E003EFB007A088400831782
:1008C2007B1C831300080A128A1103200A128A1160
:1008D200F001F00A720884008317731C8313000866
:1008E200F500840A0008F6007508033EF700760852
:1008F2000318013E003EF800770884008317781C35
:10090200831300080A128A1103200A128A1174083A
:10091200F000720884008317731C83130008F5002B
:10092200840A0008F6007508033EF70076080318EB
:10093200013E003EF800770884008317781C831379
:1009420000080A128A1103200A128A11720884000E
:100952008317731C83130008F500840A0008F6004D
:100962007508053EF70076080318013E003EF800C0
:10097200770884008317781C831300080A128A11EF
:1009820003200A128A110800720884008317731C5C
:1009920083130008F600840A0008F7007608013E77
:1009A200F80077080318013E003EF9007808840039
:1009B2008317791C831300080A128A1103200A1272
:1009C2008A117208023EF60073080318013E003EC7
:1009D200F700760884008317771C83130008F80059
:1009E20078077038F000720884008317731C831331
:1009F2000008F900840A0008FA007908033EFB00A7
:100A02007A080318013E003EFC007B08840083172D
:100A12007C1C831300080A128A1103200A128A110D
:100A22007403031D152D162D362D0330F0007208A8
:100A320084008317731C83130008F600840A0008DD
:100A4200F7007608033EF80077080318013E003EDF
:100A5200F900780884008317791C831300080A12AE
:100A62008A1103200A128A11552D0230F0007208F1
:100A720084008317731C83130008F600840A00089D
:100A8200F7007608033EF80077080318013E003E9F
:100A9200F900780884008317791C831300080A126E
:100AA2008A1103200A128A117508F0007208840064
:100AB2008317731C83130008F600840A0008F700EA
:100AC2007608033EF80077080318013E003EF9005D
:100AD200780884008317791C831300080A128A118C
:100AE20003200A128A11720884008317731C83136D
:100AF2000008F600840A0008F7007608053EF800B0
:100B020077080318013E003EF90078088400831735
:100B1200791C831300080A128A1103200A128A110F
:100B22000800831203135C08840083175D1C83137F
:100B32000008F200840A00088403F300F401F40AB6
:100B4200F5015C08023EE2005D080318013E003E2A
:100B5200E300620884008317631C83130008E40027
:100B6200840A0008E5006408013EE60065080318EF
:100B7200013E003EE700660884008317671C83136A
:100B820000080A128A1103200A128A11831203131F
:100B92005C08840083175D1C83130008F200840A3A
:100BA20000088403F300F4015C08023EE2005D08E1
:100BB2000318013E003EE300620884008317631CB1
:100BC20083130008E400840A0008E5006408840036
:100BD2008317651C831300080A128A1103200A1264
:100BE2008A11033083120313E3008A30E200553086
:100BF200E100E10BFA2DE20BFA2DE30BFA2D831241
:100C02000313EF0103306F02031C082E092E0A2E74
:100C1200262E5C08CE005D08CF00D0010330D10043
:100C22000A128A11A1230A128A112E308312031387
:100C3200E2007230E100E10B1C2EE20B1C2E0000E0
:100C4200013083120313EF07032E5C08CE005D0808
:100C5200CF00D0010230D1000A128A11A1230A1258
:100C62008A11523083120313E100E10B362E000089
:100C7200831203135C08D8005D08D900DA015E080C
:100C8200DB000A128A1140220A128A1152308312A0
:100C92000313E100E10B4B2E0000831203135C08E7
:100CA200D8005D08D900DA015F0860040C38DB0067
:100CB2000A128A1140220A128A1152308312031335
:100CC200E100E10B622E0000831203135C08D800DE
:100CD2005D08D900DA01DB01DB0A0A128A1140221F
:100CE2000A128A110D3083120313E200FB30E10075
:100CF200E10B792EE20B792E831203135C08D800E4
:100D02005D08D900DA010630DB000A128A1140229E
:100D12000A128A11523083120313E100E10B8F2E63
:100D220000000800013083120313D1003130D000DB
:100D32002D30CF000030CE000030D5000130D4007D
:100D42008630D300A030D2002F080A128A11032065
:100D52000A128A113D3083120313DC000030DD00D9
:100D62002830DE000230DF00E001E00A2A080A1221
:100D72008A1103200A128A11393083120313DC000C
:100D82000030DD002830DE000230DF00E001E00A42
:100D920025080A128A1103200A128A113530831299
:100DA2000313DC000030DD002830DE000230DF00FB
:100DB200E001E00A20080A128A1103200A128A11AD
:100DC2003D3083120313DC000030DD002B080A12D1
:100DD2008A1103200A128A11393083120313DC00AC
:100DE2000030DD0026080A128A1103200A128A1135
:100DF200353083120313DC000030DD0021080A12B3
:100E02008A1103200A128A113D3083120313DC0077
:100E12000030DD00DE01DF012E080A128A110320F4
:100E22000A128A113D3083120313DC000030DD0008
:100E32003530DE000F30DF002D080A128A11032040
:100E42000A128A11393083120313DC000030DD00EC
:100E5200DE01DF0129080A128A1103200A128A110F
:100E6200393083120313DC000030DD003530DE0040
:100E72000F30DF0028080A128A1103200A128A1191
:100E8200393083120313DC000030DD00DE01DF01A4
:100E9200DF0A29080A128A1103200A128A1139303C
:100EA20083120313DC000030DD004430DE000D301D
:100EB200DF0028080A128A1103200A128A1135302B
:100EC20083120313DC000030DD00DE01DF012408A1
:100ED2000A128A1103200A128A113530831203136F
:100EE200DC000030DD003530DE000F30DF0023088B
:100EF2000A128A1103200A128A113530831203134F
:100F0200DC000030DD00DE01DF01DF0A24080A1206
:100F12008A1103200A128A11353083120313DC006E
:100F22000030DD004430DE000D30DF0023080A12FD
:100F32008A1103200A128A11353083120313DC004E
:100F42000030DD00DE010230DF0024080A128A11BF
:100F520003200A128A11353083120313DC00003099
:100F6200DD002630DE000F30DF0023080A128A116E
:100F720003200A128A11353083120313DC00003079
:100F8200DD00DE010330DF0024080A128A1103208B
:100F92000A128A11353083120313DC000030DD009F
:100FA2001730DE000F30DF0023080A128A110320F7
:100FB2000A128A114D3083120313EE001930ED002C
:100FC2004F30EC00EC0BE32FED0BE32FEE0BE32F96
:100FD200E12E0A128A11002883134E30FD000230DE
:100FE200FE006930FF00203084000A128A11CE21EF
:0E0FF2000A128A11EF0183010A128A11932E4E
:02400E00F23F7F
:00000001FF
